:10000000F0C000000C94B7080C94E4080C9411099B
:100010000C943E090EC100000CC100000AC1000092
:1000200008C1000006C10000EBC7000067C6000061
:1000300000C10000FEC00000FCC00000FAC00000CB
:10004000F8C00000F6C00000F4C00000F2C00000DC
:10005000FCC40000EEC00000ECC000008DC5000034
:10006000E8C00000E6C00000E4C00000E2C00000FC
:10007000E0C00000DEC00000DCC00000DAC000000C
:10008000D8C00000D6C00000D4C00000D2C000001C
:10009000D0C00000CEC00000CCC00000CAC000002C
:1000A000C8C00000C6C00000C4C000000123022375
:1000B0000423082380230129022904290829402632
:1000C000802640298029102320234023802F402F81
:1000D000202F102F022F012F10292029402C7DFDC9
:1000E0007DFB7DF77DEF7DDF7E7F7EBF7EDF7EEF58
:1000F0007EFD7EFE7DFE0001040506070D0C0B0A49
:1001000009080A0B0C0D0706050401000800010090
:100110000041011200020000530143000300009659
:100120000104010309049A011802030904B4011629
:1001300003030904CC010C0001C1020180360181D6
:10014000361201000202000020C0168304000101E3
:1001500002030109024300020100C0320904000049
:100160000102020100052400100105240100010420
:100170002402060524060001070582030800400941
:10018000040100020A000000070503024000000706
:1001900005840240000004030904180354006500AC
:1001A00065006E00730079006400750069006E00E0
:1001B0006F0000001603550053004200200053005A
:1001C00065007200690061006C0000000C033100E2
:1001D00032003300340035000000FCF3CF3FB8029A
:1001E000A30B11241FBECFEFDAE0DEBFCDBF11E0BD
:1001F000A0E0B1E0E6E3F8E102C005900D92A6327E
:10020000B107D9F711E0A6E2B1E001C01D92A13615
:10021000B107E1F711E0C2EED1E004C02297FE0180
:100220000E94150CCE3DD107C9F70E946B090C94B2
:10023000190CE6CEA0913601B0913701ED91FD91F8
:100240008081ED91FD919081ED91FD916C916370B4
:100250008E2309F064609F2309F06860EAE3F1E00F
:10026000E60FF11D659565956D936D917D918D916D
:100270009D91099423C01AC012C016C010C01EC0A0
:1002800009C014C013C006C019C009C00DC007C002
:100290000DC014C062507040804090400BC061504F
:1002A00070408040904006C06E5F01C06F5F7F4F1E
:1002B0008F4F9F4F9E938E937E936E930895A09140
:1002C0003801B0913901ED91FD918081ED91FD9161
:1002D0009081ED91FD916C9163708E2309F06460C3
:1002E0009F2309F06860EFE7F1E0E60FF11D6595E7
:1002F00065956D936D917D918D919D91099423C02C
:100300001AC012C016C010C01EC009C014C013C04D
:1003100006C019C009C00DC007C00DC014C062508E
:100320007040804090400BC06150704080409040D1
:1003300006C06E5F01C06F5F7F4F8F4F9F4F9E93D0
:100340008E937E936E930895A0913A01B0913B01F4
:10035000ED91FD918081ED91FD919081ED91FD9167
:100360006C9163708E2309F064609F2309F06860CC
:10037000E4ECF1E0E60FF11D659565956D936D91E7
:100380007D918D919D91099423C01AC012C016C011
:1003900010C01EC009C014C013C006C019C009C0D7
:1003A0000DC007C00DC014C0625070408040904026
:1003B0000BC0615070408040904006C06E5F01C02D
:1003C0006F5F7F4F8F4F9F4F9E938E937E936E9361
:1003D0000895A0913C01B0913D01ED91FD91808186
:1003E000ED91FD919081ED91FD916C9163708E2363
:1003F00009F064609F2309F06860E9E0F2E0E60F2D
:10040000F11D659565956D936D917D918D919D9192
:10041000099423C01AC012C016C010C01EC009C063
:1004200014C013C006C019C009C00DC007C00DC05C
:1004300014C062507040804090400BC061507040CA
:100440008040904006C06E5F01C06F5F7F4F8F4F4E
:100450009F4F9E938E937E936E930895863099F06E
:10046000873018F4853029F406C08730A1F0883031
:10047000E9F080E00895709337016093360180E0E1
:100480006AE171E00FC0709339016093380181E037
:100490006FE571E007C070933B0160933A0182E021
:1004A00064EA71E041E026D681E0089570933D0151
:1004B00060933C0183E069EE71E041E01BD681E08E
:1004C00008950F931F93CF93DF93EC01162F042F02
:1004D000862FE2D2802FE0D2812F90E0880F991FE3
:1004E000FC01E355FF4FE491E883198284559F4F47
:1004F000FC0124912C83802F90E0880F991FFC0130
:10050000E355FF4FE491EA831B8284559F4FFC0122
:1005100084918D831F82188619861A8680E49FE154
:100520000197F1F7E881F981808140E090E030E0C7
:1005300082239323892B09F041E0EA81FB8120810A
:1005400030E08D8190E028233923232B09F042608D
:100550004E83812FBE0182DF182F8B87802FBE0133
:100560007DDF180F1B87DF91CF911F910F910895A9
:1005700086E291E065E046E0A4CFCF93DF938091DF
:100580003201882309F4A1C080913101823008F042
:1005900044C0F894A6E2B1E0ED91FD918081ED9127
:1005A000FD919081ED91FD916C9163708E2309F026
:1005B00064609F2309F06860E8EEF2E0E60FF11D49
:1005C000659565956D936D917D918D919D91099442
:1005D00023C01AC012C016C010C01EC009C014C06B
:1005E00013C006C019C009C00DC007C00DC014C09B
:1005F00062507040804090400BC06150704080401D
:10060000904006C06E5F01C06F5F7F4F8F4F9F4F5E
:100610009E938E937E936E9301C0F8947894C091CC
:100620002D01D0912E01809105019091060120E8C5
:1006300080309207D1F02091090130910A01821790
:10064000930724F4C817D90784F406C0281739077C
:1006500064F48C179D074CF480E090E890930601B9
:100660008093050181E0809333018091070190918F
:100670000801C817D90719F5809134018F5F80935D
:1006800034018830F4F0109232011092340180E08D
:1006900090E890930A0180930901E0915701F0914D
:1006A00058010280F381E02D87E591E060E071E080
:1006B00044E050E0099587E591E011D602C0109220
:1006C0003401D0930801C0930701DF91CF910895C1
:1006D00080913201882309F053C08091310182302A
:1006E00008F044C0F894A6E2B1E0ED91FD9180815C
:1006F000ED91FD919081ED91FD916C9163708E2350
:1007000009F064609F2309F06860E1E9F3E0E60F17
:10071000F11D659565956D936D917D918D919D917F
:10072000099423C01AC012C016C010C01EC009C050
:1007300014C013C006C019C009C00DC007C00DC049
:1007400014C062507040804090400BC061507040B7
:100750008040904006C06E5F01C06F5F7F4F8F4F3B
:100760009F4F9E938E937E936E9301C0F8947894DE
:1007700080912D0190912E0190930A01809309019F
:10078000289A6AEF70E080E090E036D22898809155
:100790003201882319F481E08093320108951F9378
:1007A000CF93DF9387E591E05FD6182FC0E0D0E0CC
:1007B00017C087E591E06DD6282F20532A3080F4AA
:1007C000CE0163E0880F991F6A95E1F7CC0FDD1F1A
:1007D0008C0F9D1FC22FDD27C7FDD095C80FD91FD5
:1007E00087E591E01DD6892B21F71D3219F4D095AC
:1007F000C195DF4FCE01DF91CF911F910895BF9238
:10080000CF92DF92EF92FF920F931F93CF93DF93DC
:1008100080913301882309F4CDC01092330158DF51
:10082000C9C087E591E035D6833509F497C0843592
:1008300078F4833409F4A0C0843420F4823409F0BD
:10084000C8C016C0873429F1823509F0C2C084C0FF
:10085000833609F4ACC0843620F4843509F0B9C07D
:1008600011C0873609F468C0823709F0B2C075C07C
:100870002FDFE0920B01F0920C0100930D01109319
:100880000E01A7C08CDF909306018093050120DF45
:10089000A0C080913101823008F043C0F894D601A5
:1008A000ED91FD918081ED91FD919081ED91FD9112
:1008B0006C9163708E2309F064609F2309F0686077
:1008C000ECE6F4E0E60FF11D659565956D936D918D
:1008D0007D918D919D91099423C01AC012C016C0BC
:1008E00010C01EC009C014C013C006C019C009C082
:1008F0000DC007C00DC014C06250704080409040D1
:100900000BC0615070408040904006C06E5F01C0D7
:100910006F5F7F4F8F4F9F4F9E938E937E936E930B
:1009200001C0F894789440912D0150912E0160916E
:100930002F017091300109C040913501552747FDC5
:100940005095662757FD6095762F87E591E043D552
:1009500087E591E0C4D43DC006D1E8D020DFF8940B
:10096000A0E0B0E080932D0190932E01A0932F0181
:10097000B093300178942DC0F89410922D0110920C
:100980002E0110922F01109230017894D09306011D
:10099000C09305011092080110920701D0930A013B
:1009A000C0930901109232011092330112C0B0922B
:1009B00035010FC0BB24B394C0E0D0E8E6E2CE2EF0
:1009C000E1E0DE2EE12C70E8F72E7FEF072F7FEFBE
:1009D000172F87E591E024D5892B09F022CFDF91ED
:1009E000CF911F910F91FF90EF90DF90CF90BF902C
:1009F000089587E591E040E052EC61E070E0C1D6F7
:100A0000209A2898E1E8F0E080E18083109280004D
:100A100083E08093400184ED90E390933F018093C5
:100A20003E01909387008093860083E180838DEB65
:100A300092E0909342018093410181E080936F00A6
:100A400060ED77E080E090E0D7C01F920F920FB684
:100A50000F9211242F933F934F935F936F937F9344
:100A60008F939F93AF93BF93EF93FF93E0914101D7
:100A7000F09142010995FF91EF91BF91AF919F9144
:100A80008F917F916F915F914F913F912F910F9037
:100A90000FBE0F901F901895893130F5982F9B50FD
:100AA0009C3020F0A0E0B0E04FEF08C0EEEDF0E0A9
:100AB000990FE90FF11DA591B0E04591ECEAF0E046
:100AC000880FE80FF11D2591E491F0E03FB7F8940D
:100AD0008181922F9095892381838281822B8283C9
:100AE0008C9184238C933FBF08951DBA10926800A7
:100AF0001CBC10BE1FBA10927A0010926E001092A9
:100B00006F0010927100109272001092C900ECEB0D
:100B1000F0E0108214B817B81AB81DB810BA1082D5
:100B200015B818B81BB81EB811BA0895F89484B750
:100B3000877F84BF80916000806180936000109205
:100B4000600080E29EE40197F1F781E08093E0008D
:100B500080E28093D80080E69AEE0197F1F7C5DF36
:100B60000C94003FFFCFF894C0DF80E69AEE019727
:100B7000F1F70C940000FFCF8F938FB78F93809184
:100B80004B018D5F8D37D0F480934B0180914701ED
:100B90008F5F80934701D8F0809148018F4F8093F9
:100BA0004801A8F0809149018F4F8093490178F066
:100BB00080914A018F4F80934A0109C08D578093DD
:100BC0004B01809147018E5F8093470128F7809108
:100BD00043018C5F8093430158F0809144018F4F13
:100BE0008093440128F0809145018F4F8093450107
:100BF0008F918FBF8F9118959B01AC0114D0FB0191
:100C00000CC011D06E1B7F0B685E7340D0F3215077
:100C1000304040405040E851FC4F2115310541051E
:100C2000510579F708950FB6F89466B515B270912D
:100C3000430180914401909145010FBE10FE05C013
:100C40006F3F19F07C5F8F4F9F4F11240024660F78
:100C5000001C660F001C70290895F894E1E6F0E08E
:100C600020E82083108283E084BD85BDEEE6F0E0BD
:100C700080818160808391E09093800082E0809306
:100C8000810090939000809391008093C00084E055
:100C90008093C1009093C2009093C3001092C4004F
:100CA00086E880937A0020937B0010927E00109259
:100CB0007D0002D0789408958091D80087FF02C00B
:100CC00085FF1BC081E08093D70080EA8093D80025
:100CD00082E189BD09B400FEFDCF80E98093D80090
:100CE0001092E00010926101109262011092630173
:100CF0001092E1008DE08093E20008951F920F9220
:100D00000FB60F9211242F933F934F935F936F93DE
:100D10007F938F939F93AF93BF93EF93FF93109223
:100D2000E9008091E80083FF57C12091F100909184
:100D3000F1004091F1005091F1006091F10070914B
:100D4000F100A091F100B091F10082EF8093E800F2
:100D5000963009F044C0EDE0F1E020E085919591F6
:100D60008417950711F0359617C0859195918617D0
:100D7000970711F0339610C0259135914491CD011C
:100D8000AF3FB10519F010F08FEF90E0841708F431
:100D9000482FF9015EEF04C02F5F2630F9F61CC121
:100DA0008091E800282F30E0C90185709070892B70
:100DB000B9F322FD14C1242F413208F020E2922F12
:100DC00004C085918093F10091509923D1F7421B83
:100DD0005093E800442321F7203211F300C19530ED
:100DE00061F48EEF8093E8008091E80080FFFCCFF3
:100DF000842F80688093E300F2C0993009F52223A4
:100E000009F0EAC0409361011092630110924C0115
:100E10008EEF8093E800E7E3F1E091E09093E90042
:100E200085918093EB00882331F085918093EC00CD
:100E300085918093ED009F5F953081F78EE1C7C06B
:100E4000983061F4203809F0C7C08091E80080FF35
:100E5000FCCF809161018093F10096C09132A9F49A
:100E6000213A09F0B9C08091E80080FFFCCF20E072
:100E700030E0F901E15FFE4F80818093F1002F5F48
:100E80003F4F27303105A9F77FC0903209F04BC0A2
:100E9000213209F0A1C08091E80082FFFCCF20E060
:100EA00030E0F901E15FFE4F8091F10080832F5F18
:100EB0003F4F27303105A9F78BEF8093E8008EEF85
:100EC0008093E80080910F0190911001A091110191
:100ED000B091120186389105A105B10519F48FE092
:100EE00080934D0180910F0190911001A09111010B
:100EF000B091120186399105A105B10509F06FC0C5
:100F000084E08093E9002FEF06C02093E8008091F1
:100F1000E80082FDFCCF8091EE0090E0837090703D
:100F2000892B99F720DE923251F4213209F054C016
:100F3000409363018091E80080FFFCCF25C093328D
:100F400041F4213209F048C08091E80080FFFCCFD5
:100F50001BC09923E9F48091E80080FFFCCF223880
:100F600011F080E00DC06093E9008091EB0090E00B
:100F700025E0969587952A95E1F781701092E90012
:100F80008093F1001092F1008EEF8093E80027C06B
:100F9000913011F0933001F52230F1F4452BE1F45A
:100FA000262F2F77822F81508630B0F48EEF8093DA
:100FB000E8002093E900933079F089E18093EB0019
:100FC00081E090E002C0880F991F2A95E2F7809394
:100FD000EA001092EA0003C081E28093EB00FF91E7
:100FE000EF91BF91AF919F918F917F916F915F91A1
:100FF0004F913F912F910F900FBE0F901F9018951A
:101000001F920F920FB60F9211242F933F934F937D
:101010005F936F937F938F939F93AF93BF93EF9360
:10102000FF938091E1001092E100982F83FF11C09F
:101030001092E90081E08093EB001092EC0082E2D4
:101040008093ED0088E08093F0001092610110928F
:10105000630192FF1DC0809161018823C9F08091D6
:101060004C01882359F0815080934C01882331F43E
:1010700084E08093E9008AE38093E80080914D0149
:10108000882331F0815080934D01882309F44EDD8F
:1010900090FF0CC080E18093E2001092610181E03A
:1010A0008093620180EA8093D80019BC809162012C
:1010B000882379F094FF0DC082E189BD09B400FE58
:1010C000FDCF80E98093D8008DE08093E2001092FC
:1010D0006201FF91EF91BF91AF919F918F917F91AD
:1010E0006F915F914F913F912F910F900FBE0F9095
:1010F0001F901895942F843098F0863061F08730D7
:1011000018F4853099F505C0873039F0883071F5CD
:1011100006C080E005C081E003C082E001C083E03A
:10112000482F50E09A01220F331FF901E15BFE4F77
:1011300071836083FA01E652FE4FE4916091690089
:101140009370892F90E002C0880F991F2A95E2F7CB
:10115000E623E82BE09369002DB381E090E002C024
:10116000880F991F4A95E2F7282B2DBB08951F92EF
:101170000F920FB60F9211242F933F934F935F93CB
:101180006F937F938F939F93AF93BF93EF93FF934F
:1011900080914F0190915001892B29F0E0914F01EE
:1011A000F09150010995FF91EF91BF91AF919F91FF
:1011B0008F917F916F915F914F913F912F910F9000
:1011C0000FBE0F901F9018951F920F920FB60F929F
:1011D00011242F933F934F935F936F937F938F933C
:1011E0009F93AF93BF93EF93FF93809151019091A1
:1011F0005201892B29F0E0915101F091520109959A
:10120000FF91EF91BF91AF919F918F917F916F91DE
:101210005F914F913F912F910F900FBE0F901F90B4
:1012200018951F920F920FB60F9211242F933F9390
:101230004F935F936F937F938F939F93AF93BF93DE
:10124000EF93FF938091530190915401892B29F0E2
:10125000E0915301F09154010995FF91EF91BF91F5
:10126000AF919F918F917F916F915F914F913F913E
:101270002F910F900FBE0F901F9018951F920F92F5
:101280000FB60F9211242F933F934F935F936F9359
:101290007F938F939F93AF93BF93EF93FF9380912F
:1012A000550190915601892B29F0E0915501F0915B
:1012B00056010995FF91EF91BF91AF919F918F9149
:1012C0007F916F915F914F913F912F910F900FBE42
:1012D0000F901F901895C1DC8CDB91DAFECFDF9365
:1012E000CF9300D0CDB7DEB7DC018DE089838AE0F3
:1012F0008A83ED91FC9111970280F381E02DCD015D
:10130000BE016F5F7F4F42E050E009950F900F9054
:10131000CF91DF9108950F931F93DF93CF93CDB7B4
:10132000DEB72B970FB6F894DEBF0FBECDBF8C0192
:10133000DE011B9693E3499F4427090E411D802D32
:10134000599F5527400D511D699F6627500D611DFE
:10135000799F7727600D711D1124840F451F561F3B
:10136000671F711D850F461F571F611D711D870F58
:10137000411D511D611D711D7695679557954795C6
:1013800087959AE0899F812D1124805D8E93411568
:1013900051056105710509F0CDCF222311F08DE2D1
:1013A0008E93F80180819181AE014A1B5B0B455FF2
:1013B0005F4FFC0122813381C801BD01F90109950C
:1013C0002B960FB6F894DEBF0FBECDBFCF91DF9145
:1013D0001F910F91089577FD02C020E008C070951D
:1013E0006095509541955F4F6F4F7F4F21E093CFB0
:1013F000DF93CF930F92CDB7DEB7FC016983A08155
:10140000B18112962D913C911397BE016F5F7F4F72
:1014100041E050E0F90109950F90CF91DF910895D7
:10142000FC019FB7F89480916101882311F420E0BA
:1014300010C083E08093E9002091F200222349F458
:101440008091E80082FF05C085FD03C08BE6809394
:10145000E8009FBF8085918597FD03C02F3F09F06D
:101460002F5F822F90E00895CF93DF93EC01888562
:10147000998597FF09C0E881F9810680F781E02D01
:10148000CE0109959987888788859985DF91CF91C5
:101490000895FC012085318537FD05C08FEF9FEF52
:1014A0009187808722C02FB7F894809161018823AB
:1014B00069F083E08093E9009BE68091E80085FD78
:1014C00009C082FF03C09093E800F7CF2FBF2FEF32
:1014D0003FEF0CC09091F1008091E80085FD03C0C2
:1014E0008BE68093E8002FBF292F30E0C9010895D3
:1014F0009FB7F89480916101882361F080914C013D
:10150000882341F084E08093E9008AE38093E80037
:1015100010924C019FBF08956F927F928F929F927D
:10152000AF92BF92CF92DF92EF92FF920F931F93F1
:10153000CF93DF933C018B0180916101882329F4D3
:1015400081E0D30112968C9311C03FB7F89484E0E8
:101550008093E90080914E01882369F08091E80032
:1015600085FD07C03FBF81E0E3018A838824992479
:10157000DAC010924E0188249924F4E0AF2EE0E402
:10158000BE2E71EFE72EF12C6AE3C62E23E0D22E99
:10159000C5C09091E400915F8091E80085FD19C07D
:1015A0003FBF8091E400891731F481E080934E01C0
:1015B000F3018283B8C080916101882329F481E01E
:1015C000D30112968C93AFC03FB7F894A092E90074
:1015D000E3CF8091F2002B2D281B822F90E048173B
:1015E000590708F4242F622F70E0E801D701E0E4E6
:1015F000E21BE03428F4EE0FFF27EF5FF44F09946D
:1016000080C089918C9389918C9389918C938991D5
:101610008C9389918C9389918C9389918C938991E6
:101620008C9389918C9389918C9389918C938991D6
:101630008C9389918C9389918C9389918C938991C6
:101640008C9389918C9389918C9389918C938991B6
:101650008C9389918C9389918C9389918C938991A6
:101660008C9389918C9389918C9389918C93899196
:101670008C9389918C9389918C9389918C93899186
:101680008C9389918C9389918C9389918C93899176
:101690008C9389918C9389918C9389918C93899166
:1016A0008C9389918C9389918C9389918C93899156
:1016B0008C9389918C9389918C9389918C93899146
:1016C0008C9389918C9389918C9389918C93899136
:1016D0008C9389918C9389918C9389918C93899126
:1016E0008C9389918C9389918C9389918C93899116
:1016F0008C9389918C9389918C9389918C93899106
:101700008C938E018091E80085FD02C0C092E800B4
:10171000461B570B860E971ED0924C014115510562
:1017200009F037CF3FBFC401DF91CF911F910F91D7
:10173000FF90EF90DF90CF90BF90AF909F908F90F1
:101740007F906F900895E7E5F1E08AE0DF011D9258
:101750008A95E9F71092590188EE93E0A0E0B0E095
:1017600080935A0190935B01A0935C01B0935D015B
:1017700010925E018AE191E09093580180935701A5
:1017800008952FEF3FEFFC013187208795DA0FB6E0
:10179000F8948091470190914801A0914901B0913E
:1017A0004A010FBEAC0180916101882329F068ECE9
:1017B00070E080E090E020CA80916201882309F106
:1017C0000FB6F8948091470190914801A09149018A
:1017D000B0914A010FBE9C0110C00FB6F8948091E1
:1017E000470190914801A0914901B0914A010FBE73
:1017F000821B930B8B3F9105A8F480916201882393
:1018000061F70FB6F8948091470190914801A0913B
:101810004901B0914A010FBE841B950B855C99402C
:1018200008F4C1CF0895EE0FFF1F0590F491E02D4D
:061830000994F894FFCFBB
:10183600446F6E65000080008000800080FFFF001E
:10184600E1000000000800000000F8098C0A100AF8
:06185600490A340A780A79
:00000001FF
